:020000040800F2
:100000005864002075020008B5130008411100086B
:10001000B1130008C30E0008631B000800000000B5
:10002000000000000000000000000000DD010008EA
:10003000C70E000800000000210200081118000887
:100040008F0200088F0200088F0200088F0200084C
:100050008F0200088F0200088F0200088F0200083C
:100060008F0200088F0200088F0200088F0200082C
:100070008F0200088F0200088F0200088F0200081C
:100080008F0200088F0200088F0200088F0200080C
:100090008F0200088F0200088F0200088F020008FC
:1000A0008F0200088F0200088F0200088F020008EC
:1000B00081180008B1180008E11800088F02000834
:1000C0008F0200088F0200088F0200088F020008CC
:1000D0008F020008411900088F0200088F020008F3
:1000E0008F0200088F0200088F0200088F020008AC
:1000F0008F0200088F0200088F0200088F0200089C
:100100008F0200088F0200088F0200088F0200088B
:100110008F0200088F0200088F0200088F0200087B
:100120008F0200088F0200088F0200088F0200086B
:1001300000F002F800F042F80AA090E8000C8244B7
:100140008344AAF10107DA4501D100F037F8AFF294
:10015000090EBAE80F0013F0010F18BFFB1A43F0A5
:1001600001031847F45E0000145F0000103A24BF3A
:1001700078C878C1FAD8520724BF30C830C144BF0C
:1001800004680C607047000000230024002500264E
:10019000103A28BF78C1FBD8520728BF30C148BFEA
:1001A0000B607047642900F0D183732900F09885B3
:1001B000002070471FB51FBD10B510BD00F006FE32
:1001C0001146FFF7F7FF02F0FFF800F024FE03B43A
:1001D000FFF7F2FF03BC02F058F80000224B196849
:1001E0000868B0E8F00F80F30988BFF36F8F4FF015
:1001F000000080F311884EF00D0E704700000000E3
:1002000006480068006880F3088862B661B6BFF3EC
:100210004F8FBFF36F8F00DF00BF00BF08ED00E01E
:10022000EFF30980BFF36F8F0F4B1A6820E9F00FCF
:10023000106008B54FF0500080F31188BFF34F8F66
:10024000BFF36F8F03F072FD4FF0000080F3118851
:10025000BDE8084019680868B0E8F00F80F3098825
:10026000BFF36F8F704700BF64000020EFF305807D
:10027000704700000948804709480047FEE7FEE74D
:10028000FEE7FEE7FEE7FEE7FEE7FEE7FEE7FEE746
:1002900004480549054A064B70470000211800082C
:1002A00031010008585E002058640020586000208A
:1002B000586000202DE9F04F4FF0000C4FF0000384
:1002C00001EB1C6EBEF90250BEF900400EF5807EB7
:1002D000BEF90290BEF900800EF5807EBEF9027074
:1002E000BEF900600EF5807EBEF902B0BEF900A036
:1002F0000EF5807ED044D944A8EB4A0AA9EB4B0BFB
:100300004FEAA4044FEAA50504EBA60405EBA705F4
:10031000A4EB6606A5EB670704EBA80405EBA905AB
:10032000A4EB6808A5EB690906EBAB06A7EBAA07E7
:10033000A6EB6B0B07EB6A0A458020F8044B47805D
:1003400020F8046BA0F8029020F8048BA0F802A01B
:1003500020F804BB03F1010393FAA3FC402BAFD1B7
:10036000A0EB82014FF0100312090FF2361000F1DA
:10037000000006B403EB430C6144A2F5803202EBAB
:100380008332B1F90250B1F90040A1EB0301B0F999
:1003900002B0B0F900A000F10400A5EB040E0EFBC2
:1003A0000BFC0AEB4B0E05FB0ACB04FB0ECAB1F9A2
:1003B0000250B1F90040A1EB0301B0F90290B0F98D
:1003C000008000F10400A5EB040E0EFB09FC08EB15
:1003D000490E05FB08C904FB0EC8B1F90250B1F97A
:1003E0000040A1EB0301B0F90270B0F9006000F128
:1003F0000400A5EB040E0EFB07FC06EB470E05FB05
:1004000006C704FB0EC6B1F90250B1F9004001F174
:100410000001D044D944A8EB4A0AA9EB4B0B4FEAA0
:10042000A4044FEAA50504EB264405EB2745A4EBFD
:10043000E636A5EBE73704EB284405EB2945A4EBAA
:10044000E838A5EBE93906EB2B46A7EB2A47A6EBE4
:10045000EB3B07EBEA3A4D800C8019444F800E804D
:100460001944A1F80290A1F800801944A1F802A053
:1004700021F804BBB2F5803283DA03EB430C61440C
:10048000A2F101025FEA024E18BFA0EB0C007FF45C
:1004900076AF06BC4FEA830392087FF46AAFBDE8EB
:1004A000F08F0040000000400000004000005DDDD3
:1004B000213BA3227E180000412D7EA5412D000086
:1004C000412D00C000405DDD82E75DDD213B7EA562
:1004D000412D004000000040000000400000AA2A1A
:1004E00094126B39460649327C0CA8118E2349328E
:1004F0007C0CA3227E1821F77931AA2A9412A81124
:100500008E235DDD213BA3227E180000412D95C680
:10051000B13F461A2B1E58EE3735BEB4C53EA81162
:100520008E235DDD213B63A97138DF089A28B7CDA2
:10053000C53E7EA5412D0000412D00C0004063A9AD
:100540002B1E21F77931BEB4C53EBEB47C0C58EEEB
:10055000373561AC213B95C6BAF9BAE571383BA78E
:1005600037355DDD82E75DDD213B7EA5412D21F73D
:1005700066D756D53F3D3BA78E23A811C9CAB7CD34
:10058000C53E61AC7E18AA2AC1C295C6B13FBEB4B1
:100590007C0C0040000000400000004000001E3BBA
:1005A000B504693E9201C83C2403EB356409C83C9C
:1005B00024036B3946066C30060E1E3BB504EB3542
:1005C0006409AA2A94126B39460649327C0CAE247F
:1005D0000917AF37D607882E8D0F7E1E5D1BEB35B2
:1005E0006409AA2A941224188C1F1E34F10AB32617
:1005F0009015A8118E2349327C0CA3227E18140B6F
:1006000060276C30060E7E1E5D1B7104FB2A882E4F
:100610008D0F461A2B1EC7FD5A2E9D2C1211FE154A
:10062000E72021F77931AA2A9412A8118E2387F0A6
:100630005334B2281314480D202602EAE536B326B7
:100640009015DF089A289CE32B39AE240917710412
:10065000FB2A5DDD213BA3227E180000412D4ED7F1
:10066000C53C9320EF198FFB6C2F78D1153E7E1E71
:100670005D1B21F77931E2CB0F3F641CC61CB8F239
:10068000683395C6B13F461A2B1E58EE373597C1D1
:10069000FB3F24188C1F02EAE536F0BCEC3FFE1548
:1006A000E720BAE57138A6B8853FD5133D2282E12F
:1006B000DB39BEB4C53EA8118E235DDD213B40B1C0
:1006C000AF3D790FDA244DD9423C2EAE423C480D65
:1006D000202656D53F3D8EAB823A140B602778D149
:1006E000153E63A97138DF089A28B7CDC53EB1A77A
:1006F0001236A906CE2915CA4F3F78A66833710471
:10070000FB2A95C6B13FBCA576303902212C38C3EF
:10071000EC3F7EA5412D0000412D00C00040BCA54E
:10072000CE29C7FD5A2EF0BCEC3F78A620268FFBC1
:100730006C2F09BAB13FB1A73D2257F976304DB7BA
:100740004F3F63A92B1E21F77931BEB4C53E8EAB56
:10075000EF19ECF474325EB2153E2EAE9015B8F27D
:1007600068332DB03F3D40B1121187F053342EAEA7
:10077000423CBEB47C0C58EE373561AC213BA6B888
:10078000D6072BEC1236C8AADB39F0BC240302EAE8
:10079000E53663A9713897C16EFEDCE7B03734A83F
:1007A000E53695C6BAF9BAE571383BA73735E2CBDD
:1007B0000FF59CE32B3978A6683378D173F082E18A
:1007C000DB39EDA579314ED7EDEB6DDF823A99A596
:1007D0006C2F5DDD82E75DDD213B7EA5412D9CE335
:1007E0003AE352DBB63B99A5FB2A02EA19DF4DD961
:1007F000423CEDA59A2887F026DB4ED7C53C78A66B
:10080000202621F766D756D53F3D3BA78E23C7FD4F
:10081000DFD363D3AF3D34A8E720710494D078D1FF
:10082000153E63A92B1E140B8CCD94CF723EC8AA23
:100830005D1BA811C9CAB7CDC53E61AC7E1824188E
:1008400050C8E2CB0F3F2EAE90157E1E25C615CAAE
:100850004F3F2DB09412AE244AC451C8853F5EB2BA
:100860008D0FAA2AC1C295C6B13FBEB47C0C6C30B4
:100870008EC1E2C4D43F4DB76409EB35B1C038C373
:10088000EC3F09BA46061E3B2CC097C1FB3FF0BCAB
:10089000240370470FB4044910B503AA029800F06E
:1008A00023FA10BC5DF814FB4800002070B5044624
:1008B00085690068C10601D5302600E02026C00702
:1008C00007D070BDD4E9012130469047206A401C12
:1008D00020626D1EF6D570BD70B50446856900783E
:1008E000C00707D170BDD4E9012120209047206ABC
:1008F000401C20626D1EF6D570BD70B50C460546D5
:10090000012A05D02878800600D5EA69002302E094
:10091000012305E05B1C934202D2E05C0028F9D180
:10092000A869E618C01AA861286A184428622846EF
:10093000FFF7BCFF04E0D5E9012114F8010B904753
:10094000B442F8D32846FFF7C7FF70BD2DE9F04148
:100950000646002410687529314616A510D0AFF35D
:100960000080002802DA404213A507E031688A07B8
:1009700001D512A502E0490704D511A5012401E023
:10098000AFF3008000210A2206F1240709E0B0FB42
:10099000F2FCB0FBF2F302FB1C0030307854184636
:1009A000491C0028F3D123462A463046BDE8F041D1
:1009B00000F012B9000000002D0000002B00000024
:1009C000200000002DE9F0474FF0000A8946044658
:1009D000C0F820A02046E1688847002876D0252866
:1009E00006D0D4E901219047206A401C2062F1E73B
:1009F000E168204600258847C4F81CA00646002769
:100A0000C4F818A02A2E09D0304601F037FC38B3BC
:100A100004EB8708303EC8F8186019E059F8041B49
:100A2000204604EB87029161E1688847012F064662
:100A300018D1E069002820DA25F020051DE0D8F85B
:100A4000180000EB800006EB40003038C8F81800B2
:100A50002046E1688847064601F010FC0028EED1E8
:100A6000012F0AD02E2E08D12046E16888477F1C2E
:100A70000646022F45F02005C4DBA069002803DAF2
:100A8000404245F00105A061E80701D025F01005BE
:100A9000B6B1A6F14100192802D8203645F4006508
:100AA0004A463146204625604D46FFF77BFB58B14C
:100AB000012806D0ED1D25F0070000F1080989E79F
:100AC00004E005F1040985E730468AE7206ABDE8BD
:100AD000F087032A40F2308010F0030C00F01580FC
:100AE00011F8013BBCF1020F624498BF11F801CB31
:100AF00000F8013B38BF11F8013BA2F1040298BF96
:100B000000F801CB38BF00F8013B11F0030300F0FF
:100B1000FD80083AC0F0088051F8043B083A51F8CB
:100B200004CBA0E80810F5E7121D5CBF51F8043BA8
:100B300040F8043BAFF30080D20724BF11F8013B1B
:100B400011F801CB48BF11F8012B24BF00F8013B7D
:100B500000F801CB48BF00F8012B704702F0FF03FB
:100B600043EA032242EA024200F004B94FF00002D5
:100B700000B5134694469646203922BFA0E80C5093
:100B8000A0E80C50B1F12001BFF4F7AF090728BF6E
:100B9000A0E80C5048BF0CC05DF804EB890028BFEA
:100BA00040F8042B08BF704748BF20F8022B11F013
:100BB000804F18BF00F8012B70477047704770478F
:100BC000704710B500F0F6F8006810BD10B5044687
:100BD00000F0F0F8046010BD2DE9F0470D4699468D
:100BE0009246044600F124080168880604D5E069AD
:100BF00021F01001216000E00120A84201DD471B27
:100C000000E00027A1697A1902EB0900081AA06127
:100C10002078C00602D42046FFF748FE002608E0F0
:100C2000D4E901211AF806009047206A401C761C7E
:100C300020624E45F4DB2078C0060AD52046FFF737
:100C400035FE06E0D4E9012130209047206A401C9F
:100C50002062381EA7F10107F4DC07E0D4E9012186
:100C600018F805009047206A401C2062281EA5F154
:100C70000105F3DC2046FFF72FFE2078000602D5A1
:100C80000220BDE8F0870120FBE7000001694A1C53
:100C900002610878704700B58FB0CDE901310021BD
:100CA000059105497944CDE9031011466846FFF7DF
:100CB00089FE0FB000BD0000E5FFFFFF10B54369DE
:100CC00013B1AFF3008001E0FFF717FE012010BD64
:100CD000127800F124010A7000224A700122EDE727
:100CE00011684FF0FF32E9E7074B70B50D467B44C2
:100CF000FFF7D1FF0446284600F060F810B14FF02E
:100D0000FF3070BD204670BD9B16000010B5203A24
:100D1000C0F00B80B1E81850203AA0E81850B1E8B4
:100D20001850A0E81850BFF4F5AF5FEA027C24BF6A
:100D3000B1E81850A0E8185044BF18C918C0BDE861
:100D400010405FEA827C24BF51F8043B40F8043B2A
:100D500008BF7047D20728BF31F8023B48BF11F8DF
:100D6000012B28BF20F8023B48BF00F8012B704739
:100D70004FF000020429C0F0128010F0030C3FF481
:100D8000F7AECCF1040CBCF1020F18BF00F8012B38
:100D9000A8BF20F8022BA1EB0C01FFF7E9BE5FEA28
:100DA000C17C24BF00F8012B00F8012B48BF00F8DC
:100DB000012B704700487047F85D0020007B00F071
:100DC0008000704700487047F85D00207546FFF7C7
:100DD000F9FFAE4605006946534620F007008546F8
:100DE00018B020B5FFF754FABDE820404FF00006D8
:100DF0004FF000074FF000084FF0000B21F0070103
:100E0000AC46ACE8C009ACE8C009ACE8C009ACE845
:100E1000C0098D46704710B50446AFF300802046E8
:100E2000BDE81040FFF7D3B908B51C208DF80000CD
:100E300006208DF8010000208DF8020001208DF8B9
:100E40000300684600F0B8FA1D208DF80000062067
:100E50008DF8010000208DF8020001208DF80300BC
:100E6000684600F0A9FA1E208DF8000006208DF8D3
:100E7000010000208DF8020001208DF80300684673
:100E800000F09AFA25208DF8000007208DF8010067
:100E900000208DF8020001208DF80300684600F064
:100EA0008BFA08BD10B50121072000F09FFB01213E
:100EB00044F20C2000F0AAFB0121084600F086FB5A
:100EC00010BD00BFFEE7704710A0FFF7E3FC1BE07A
:100ED00013A0FFF7DFFC02F09DFB00F063F94FF475
:100EE000807214491448FFF7E5F900F0B9F802F0F0
:100EF000D5FB00231A4619461048006803F0DAF8BB
:100F00004FF47A7001F0F2F9E2E700004646545FD0
:100F10007461736B207374617274210D0A00000098
:100F20004646545F7461736B2072756E6E696E67AE
:100F3000210D0A00E4010020E4050020200000202B
:100F40002DE9F04102460025002600200023002460
:100F5000002791F803C00CF00F0591F803C00CF0C6
:100F6000100CBCF1000F03D091F802C04CEA05054B
:100F700091F800C0BCF1000F31D0146800202BE0C4
:100F80004FF0010C0CFA00F3B1F800C00CEA0306B4
:100F90009E4220D183004FF00F0C0CFA03F7BC43A4
:100FA00005FA03FC4CEA040491F803C0BCF1280FD5
:100FB00006D14FF0010C0CFA00FCC2F814C00AE094
:100FC00091F803C0BCF1480F05D14FF0010C0CFAA9
:100FD00000FCC2F810C0401C0828D1D31460B1F83E
:100FE00000C0BCF1FF0F34DD546800202EE000F19A
:100FF000080C4FF0010808FA0CF3B1F800C00CEA35
:1010000003069E4221D183004FF00F0C0CFA03F728
:10101000BC4305FA03FC4CEA040491F803C0BCF19C
:10102000280F05D100F1080C08FA0CF8C2F814805A
:1010300091F803C0BCF1480F07D100F1080C4FF044
:10104000010808FA0CF8C2F81080401C0828CED31A
:101050005460BDE8F0814161704701617047000054
:101060002DE9F04F89B000245EE0324830F82400CA
:101070000FFA80F92F4850F82400000C0FFA80FA7C
:10108000484604F087FD80464FF0874104F09AFD02
:1010900007464FF08E4104F09BFC0546504604F095
:1010A00079FD80464FF0874104F08CFD07464FF0F4
:1010B0008E4104F08DFC06463146304604F082FD38
:1010C00029460290284604F07DFD0190029904F023
:1010D0001DFC039004F0EEFBCDE9040102F046F99B
:1010E0000022154BCDE9060103F058FF074603F037
:1010F00073FE83465CB94FF08E41584604F062FDA2
:10110000074604F027FD0D4941F824000AE04FF09E
:101110008F41584604F056FD074604F01BFD074971
:1011200041F82400601C84B2802C9EDB09B0BDE82D
:10113000F08F0000E405002000007040E40700206C
:1011400000BFFEE710B520210748FFF786FF1021FA
:101150000548FFF782FF10210348FFF77CFF20219D
:101160000148FFF778FF10BD0008014010B52021AD
:101170000548FFF772FF10210348FFF76CFF1021AD
:101180000148FFF76AFF10BD0008014010B520219B
:101190000348FFF762FF20210148FFF75CFF10BD05
:1011A000000801402DE9F04F9DB04FF0000AB5E076
:1011B000504604F091F806465C4A5D4B04F0A0F8F6
:1011C00000225C4BCDE9100104F09AF800225A4B42
:1011D000CDE9120103F0E2FE044602F077F8804602
:1011E0000022564B04F08CF8CDE91601504604F06D
:1011F00073F804464D4A4E4B04F082F880460022B4
:101200004F4B04F07DF800224B4BCDE90A0103F06F
:10121000C5FE064602F05AF800224A4BCDE90C0101
:1012200004F06EF8CDE91001504604F055F806467A
:101230003E4A3F4B04F064F880460022424B04F0E3
:101240005FF8044600223C4B03F0A8FECDE9040100
:1012500002F03CF800223D4BCDE9060104F050F8C5
:10126000CDE90A01504604F037F804462F4A304BC6
:1012700004F046F80022364BCDE9000104F040F8B6
:1012800000222D4BCDE9020103F088FE064602F054
:101290001DF8804600222F4B04F032F800222E4B1E
:1012A000CDE9040103F0CAFD00222A4BCDE9060175
:1012B00003F0C4FDCDE90801DDE90A2303F0BEFD1A
:1012C0000022224BCDE90C0103F0B8FDCDE90E015F
:1012D000DDE9102303F0B2FD00221A4BCDE9120123
:1012E00003F0ACFDCDE91401DDE9162303F0A6FD02
:1012F0000022124BCDE9180103F0A0FDCDE91A013F
:1013000003F06AFD8346584604F024FC00041349A8
:1013100041F82A000AF101001FFA80FABAF1FF0F22
:101320007FF746AF1DB0BDE8F08F00001C2D445480
:10133000FB21194080A2D94000E0E54000409F40D9
:101340004049D2400040AF400068C0400018A5406E
:1013500000E075400070974000407F40E4010020AD
:1013600008B50121242000F051F94FF48070ADF848
:10137000000010208DF8030003208DF8020069465C
:101380000948FFF7DDFD4FF480710748FFF765FE60
:101390000420ADF8000069460448FFF7D1FD0421A0
:1013A0000248FFF75AFE08BD000801400014014042
:1013B00000BFFEE77047000070B5002100230F2238
:1013C000C47804B3154C246804F4E064C4F5E06404
:1013D000210AC1F10403CA40447804FA03F1847875
:1013E0001440214309010E4C0678A155047804F0FD
:1013F0001F050124AC4005786D11AD0005F1E02515
:10140000C5F8004109E0047804F01F050124AC4050
:10141000044D0678761145F8264070BD0CED00E0CD
:1014200000E400E080E100E002490143024A11606B
:10143000704700000000FA050CED00E070B50024D4
:1014400018E004F1B000002100F0B4F800210846D3
:1014500000F0B0F80021102000F0ACF8002505E005
:101460000121002000F0A6F8681CC5B2802DF7DB32
:10147000601CC4B2082CE4DB70BD000008B501217B
:10148000042000F0C3F83020ADF8000010208DF8E3
:10149000030003208DF8020069463B48FFF750FD2A
:1014A00030213948FFF7D9FDC82000F063FF002143
:1014B000AE2000F07FF80021084600F07BF8002104
:1014C000102000F077F80021402000F073F8002190
:1014D000B02000F06FF80021812000F06BF80021AF
:1014E000FF2000F067F80021A12000F063F8002140
:1014F000A62000F05FF80021A82000F05BF8002192
:101500003F2000F057F80021C02000F053F80021E0
:10151000D32000F04FF80021084600F04BF80021DE
:10152000D52000F047F80021802000F043F800218A
:10153000D82000F03FF80021052000F03BF8002102
:10154000D92000F037F80021F12000F033F8002115
:10155000DA2000F02FF80021122000F02BF80021F3
:10156000DB2000F027F80021302000F023F80021D4
:101570008D2000F01FF80021142000F01BF800213E
:10158000AF2000F017F808BD0008014070B5044610
:101590000D4605F1B000002100F00CF8102141EAE1
:1015A0001410002100F006F804F00F00002100F0F4
:1015B00001F870BD70B504460D461DB1E0B200F0F3
:1015C00013FB02E0E0B200F0F9FA70BD29B1064A5F
:1015D00052690243044B5A6104E0034A5269824350
:1015E000014B5A61704700000010024029B1064AC1
:1015F000D2690243044BDA6104E0034AD2698243B0
:10160000014BDA61704700000010024029B1064A20
:1016100092690243044B9A6104E0034A926982434F
:10162000014B9A61704700000010024030B5002164
:101630000022002400232D4D6D6805F00C0121B11E
:10164000042905D0082923D105E0294D056022E0B1
:10165000274D05601FE0254D6D6805F47012234D80
:101660006D6805F48034022505EB92421CB9214DCA
:10167000554305600BE01D4D6D6805F400351DB147
:101680001C4D5543056002E0194D5543056002E0CD
:10169000174D056000BF00BF144D6D6805F0F001E7
:1016A0000909154D6B5C0568DD4045600F4D6D689F
:1016B00005F4E061090A104D6B5C4568DD4085600A
:1016C0000A4D6D6805F46051C90A0B4D6B5C4568A5
:1016D000DD40C560054D6D6805F44041890B074D3F
:1016E0006B5CC568B5FBF3F5056130BD00100240C9
:1016F00000127A0000093D004E0000205E0000202C
:1017000010B500F001F810BD0CB50020019000905C
:101710003348006840F480303149086000BF3048E9
:10172000006800F4003000900198401C019000987F
:1017300018B90198B0F5A06FF1D12948006800F4FC
:10174000003010B10120009001E0002000900098CE
:10175000012843D12348006840F010002149086067
:101760000846006820F0030008600846006840F062
:10177000020008601A4840681949486008464068F5
:1017800048600846406840F4806048600846406809
:1017900020F47C1048600846406840F4E810486037
:1017A0000846006840F08070086000BF0C48006880
:1017B00000F000700028F9D00948406820F00300CC
:1017C000074948600846406840F00200486000BF92
:1017D0000348406800F00C000828F9D10CBD000057
:1017E0000010024000200240042808D14FF0E02100
:1017F000096941F004014FF0E022116107E04FF068
:10180000E021096921F004014FF0E02211617047E5
:1018100010B502F04BFF012801D002F07BFB10BD98
:1018200010B51348006840F00100114908600846EF
:101830004068104908400E494860084600680E4953
:1018400008400B4908600846006820F480200860C2
:101850000846406820F4FE0048604FF41F0088608E
:10186000FFF74EFF4FF000600449086010BD000014
:10187000001002400000FFF8FFFFF6FE08ED00E058
:1018800010B50121880700F04AF830B1012188071E
:1018900000F042F801A0FEF7FDFF10BD54494D32A3
:1018A0005F49525148616E646C65720D0A00000018
:1018B00010B50121084800F032F860B10121064856
:1018C00000F02AF8054802684068521C40F1000008
:1018D00002490A60486010BD000400403800002042
:1018E00010B501210A4800F01AF880B1012108481A
:1018F00000F012F8074800681F2803D100200549AE
:10190000086004E003480068401C0249086010BDFC
:101910000008004040000020CA430282704730B5F2
:101920000246002000230024158A05EA0103958958
:1019300005EA010413B10CB1012000E0002030BD24
:1019400010B540F225511D4800F04AF810B31B486D
:1019500000F002F9C4B21A48008800F40040C8B987
:101960001748008800F4804060B10A2C03D00020A2
:101970001349088020E01248008840F400401049D4
:10198000088019E00D2C06D10D48008840F48040F5
:101990000B49088010E00A480088C0F30D0009498F
:1019A0000C5407480088401C0549088008460088F8
:1019B000C72801DD0020088010BD0000003801406C
:1019C0004C000020E409002021B1828942F4005239
:1019D000828104E082894DF6FF731A40828170474C
:1019E00070B50246002400230025002040F66A1648
:1019F000B14200D100BFC1F3421501F01F0301261F
:101A000006FA03F3012D02D19689334006E0022D38
:101A100002D1168A334001E0968A33400C12012627
:101A200006FA04F41688344013B10CB1012000E02A
:101A3000002070BDF0B503460024002600250020DC
:101A400040F66A17B94200D100BF1846C1F34214EC
:101A500001F01F06012707FA06F5012C01D10C3011
:101A600004E0022C01D1103000E014301AB10768F4
:101A70002F43076002E00768AF430760F0BD000036
:101A80002DE9F04786B005460E460024A24600BF69
:101A9000A1460027B08900B100BF2F462C8A4CF622
:101AA000FF700440F08804432C82AC894EF6F3109A
:101AB0000440B08831890843718908430443AC81EC
:101AC000AC8A4FF6FF400440B0890443AC8201A8C1
:101AD000FFF7ACFD1F48874202D1DDF810A001E0FE
:101AE000DDF80CA0A88900F4004040B10AEBCA0060
:101AF00000EB0A1031684900B0FBF1F807E00AEB8F
:101B0000CA0000EB0A1031688900B0FBF1F86420CC
:101B1000B8FBF0F004012009642101FB1089A889B9
:101B200000F4004040B1322000EBC900B0FBF1F0FE
:101B300000F00700044308E0322000EB09106421A4
:101B4000B0FBF1F000F00F0004432C8106B0BDE8BB
:101B5000F08700000038014001468888C0F3080083
:101B6000704700BFFEE700002DE9F04105462C4616
:101B700020211148FFF76FFA002619E0274607F0E9
:101B80008007802F04D110210B48FFF766FA03E08D
:101B900010210948FFF75FFA6006040E202106486D
:101BA000FFF75BFA20210448FFF755FA701CC6B214
:101BB000082EE3DBBDE8F0810008014010B50446C3
:101BC000FFF7C0FA7820FFF7CFFFFFF7DFFA00201A
:101BD000FFF7CAFFFFF7DAFA2046FFF7C5FFFFF766
:101BE000D5FAFFF7C3FA10BD10B50446FFF7AAFAFD
:101BF0007820FFF7B9FFFFF7C9FA4020FFF7B4FFDD
:101C0000FFF7C4FA2046FFF7AFFFFFF7BFFAFFF771
:101C1000ADFA10BD490050EAC12018BF04204A0D9A
:101C200018BF40F0010040F2FF72B2EB515F08BFF5
:101C300040F00200012808BF052070472DE9F74F4A
:101C4000144694B00021C4E902111599079121F0BE
:101C50000045C9498D4206DC1599C4E9000117B059
:101C60000020BDE8F08FC549DFF814A3A9423CDD90
:101C70000799C44E0029C44FC44A1599534619DD2B
:101C800003F02EFD554506D0C14AC24B03F028FD96
:101C9000C4E900010AE04FF0D352BE4B03F020FD2F
:101CA00032463B4603F01CFDC4E9000117B0012099
:101CB000BDE8F08F03F0C2F8554506D0B44AB54BE5
:101CC00003F0BCF8C4E900010AE04FF0D352B14B75
:101CD00003F0B4F832463B4603F0B0F8C4E9000123
:101CE00017B04FF0FF30BDE8F08FAB49A94215990E
:101CF00078DB21F0004183468846A84AA84B03F0D0
:101D0000FFFA0022A74B03F099F803F09FFA09901D
:101D100003F0CBFA06460F469C4A534603F0F0FA0E
:101D200043465A4603F0EAFB80468A46984A994B56
:101D30003046394603F0E4FA2A0D01250B9242465B
:101D4000534603F0DBFB032DC4E9000139D00B98A7
:101D5000C1F30A51401A05EB45111139814230DABD
:101D60009148C346784400EB0510CDF80CA00C90C8
:101D7000D0E900233046394603F0C2FA02460B464A
:101D8000049106905846039903F0AAFC80468A46BF
:101D900002460B465846039903F0A2FC049B069AA0
:101DA00003F09EFC83460C9803913946D0E9022348
:101DB000304603F0A5FA5A46039B03F091FC6D1CD4
:101DC000BDE707980028A2BF099817B0BDE8F08FBB
:101DD000616881F000416160099817B04042BDE838
:101DE000F08FFFE784461598C1F31301C0F30A5042
:101DF000A0F2F5304FEA601800F01F06C6F120008F
:101E0000139000200690079041F4801E05206D4637
:101E100076B1664A08EB00017A4452F8213002EBB1
:101E20008101B3404A68139922FA01F1194305E090
:101E30005F4908EB0002794451F82210A1FB0E27FC
:101E4000A1FB0C131A449A4234BF0123002303EB75
:101E5000070A05EB8003D3E901B70F448F4234BF73
:101E60000121002193448B4411B1934502D903E031
:101E7000934501D2012100E00021C3E901B751449B
:101E800045F82010011EA0F10100C1DC0298059F59
:101E900000F10050800F12900298DDE90356800097
:101EA00003F003FA834628460D9103F015FA6FF00C
:101EB0001D0203F0FAFFCDE90E01304603F00CFAE3
:101EC0006FF03D0203F0F1FF80468A46384603F08A
:101ED00003FA6FF05D0203F0E8FF074642465346FF
:101EE000119102F0ABFFDDE90E2302F0A7FF5A4685
:101EF0000D9B02F0A3FF00250E465A4628460D9B77
:101F000003F0EEFBDDE90E2303F0EAFB4246534605
:101F100003F0E6FB3A46119B03F0F0FADFF898A0D5
:101F2000244A534603F0ECF907468846234A244BDB
:101F30003146284603F0E4F93A46434602F07EFF74
:101F4000074688464FF0A84253463146284603F0DC
:101F5000D7F93A46434602F071FF159A12F0004F46
:101F600004D0129A81F0004152421292C4E9000159
:101F7000129817B0BDE8F08FFB21E93F7CD90240F1
:101F8000FB21F93F7370032E8A19A33B00004054D4
:101F90003163621A61B4D03DFB21394183C8C96DF8
:101FA000305FE43F0000E03F004200007C41000061
:101FB0005E410000182D4454FB21F93D3326A61143
:101FC000460B113C2DE9FF4D21F0004807460C4619
:101FD000B8F1795F08DA03F039F9002801BF002071
:101FE000324904B0BDE8F08D3A4623461046194602
:101FF00003F086F9054602462D480E460B4606219B
:10200000784400F05DF82A46334603F079F9DDE9BB
:10201000022382468B463846214603F071F9044676
:102020000F4652465B462846314603F069F9224680
:102030003B4603F055FB07468A464FF0FF322846E1
:10204000314603F032FF1B4A90450ADA3A465346BE
:1020500003F046FB04B00022BDE8F04D134B03F043
:102060004DBA154A4245A8BFA8F500154FF0000427
:10207000B8BF124D22462B4603F032FB0646884677
:1020800022462B460020094903F02AFB04460D4650
:102090003A4653463046414603F022FB04B02246FE
:1020A0002B46BDE8F04D03F029BA00000000F03FD8
:1020B000343F00003333D33F0000E93F0000D23FFC
:1020C0002DE9F0414F1E00EBC7010446D1E90001A4
:1020D00015461E4637F006020DD02A46334603F059
:1020E0000FF97F1E04EBC703D3E9002302F0A6FE1D
:1020F00037F00602F1D1022F25D0042F13D0062F7E
:1021000018BFBDE8F0812A46334603F0F9F8D4E958
:102110000A2302F093FE2A46334603F0F1F8D4E98D
:10212000082302F08BFE2A46334603F0E9F8D4E98F
:10213000062302F083FE2A46334603F0E1F8D4E991
:10214000042302F07BFE2A46334603F0D9F8D4E993
:10215000022302F073FE2A46334603F0D1F8D4E995
:102160000023BDE8F04102F069BE00002DE9FF4DFB
:10217000054621F0004084B00C46B0F1795F0BDADF
:102180002846FFF747FD042808BF00F06FF82846EF
:1021900008B02146BDE8F08D2A460B46104603F0F4
:1021A000AFF806460F462A46234603F0A9F88046B4
:1021B00026488A4632463B4605217844FFF780FF91
:1021C00083461098029160B3214A224B4046514603
:1021D00003F096F8CDE900015A4640465146029B6D
:1021E00003F08EF882468846DDE906014FF0FF32A3
:1021F00003F05BFE5246434603F072FA32463B461A
:1022000003F07EF8DDE9062303F06AFADDE9002336
:1022100003F066FA08B02A462346BDE8F04D03F005
:102220006DB90B465A463046394603F069F8084AFC
:10223000084B02F003FE4246534603F061F808B033
:102240002A462346BDE8F04D02F0F8BD723E00007C
:10225000495555555555C5BF012203F026BE0022EC
:1022600013461046114602F099BE0000024A0020B3
:10227000110703F01ABE000001FDFFFF30380A28E5
:1022800001D2012070470020704700BF7047000056
:1022900010B50420FFF7A8FA104800681049B0FBF9
:1022A000F1F0104908700D4800680D49B0FBF1F4D9
:1022B0004FF47A70444301200B4908804FF0E0202E
:1022C000006940F002004FF0E021086108464461D7
:1022D000006940F00100086110BD000024000020EA
:1022E00040420F00440000204600002070B5044624
:1022F00002F0DCF9012810D00B480088844206D394
:1023000009480088B4FBF0F5284601F0DBFA0648DE
:102310000088B4FBF0F100FB11444FF47A7104FB28
:1023200001F000F003F870BD4600002070B50346D0
:1023300000224FF0E02675690D4E367803FB06F457
:102340004FF0E026B16910E04FF0E026B069884216
:102350000BD0884202D20E1A324402E02E1A0E44EA
:1023600032440146A24200D300E0EDE700BF70BD59
:102370004400002030B50446002504E04FF47A7094
:10238000FFF7D4FF6D1CA542F8D330BD00BF054A4E
:10239000128802F04002002AF9D0C2B2014B1B1D84
:1023A0001A8070470038014009E005480068C043C2
:1023B0000449C1F8A0014FF4FA7001F083FAF4E780
:1023C000A0012142000021421CB54FF44070FFF7EC
:1023D0002BF8FEF767FDFEF727FDFFF759FF4FF4D7
:1023E000612001F07DF8FEF7BBFFFFF747F8FFF72C
:1023F00025F800210846FFF7C9F801210846FFF734
:10240000D9F80748012100238022CDE9001005A159
:10241000074802F01BF901F027FC00201CBD00005A
:102420000000002073746172745F7461736B00004C
:10243000B93300082DE9F04707460E4614464FF021
:10244000FF084FF000094FF0000A2046E11704EBA7
:102450005171C1F3C709E11704EB5171C910A4EB25
:10246000C10101F0FF0A31463846FFF78FF8002519
:102470000AE07019C1B23846FFF788F80121FF2041
:10248000FFF798F8681CC5B24D45F2DB7019C1B270
:102490003846FFF77BF8CAF10801FF2040FA01F83F
:1024A00001214046FFF786F8BDE8F0871CB50024FF
:1024B00031A0FEF7EFF95EE04FF0FF3133480068DE
:1024C00001F09AFF012853D131A0FEF7E3F900246F
:1024D0001BE04FF42F4004FB00F5374850F8240070
:1024E000000C00B2344931F8241009B2CDE90010D3
:1024F000324850F82430E81705EB106002122146EC
:102500002FA0FEF7C7F9601C84B2802CE1DB2B48BA
:1025100040682A490860002428E06100274A52F8F0
:1025200021206100491C254B53F821101144480813
:1025300002F0D2FE0746284A284B02F0E1FE05468B
:1025400002F084FE264941F82400084650F8240091
:102550001F2802DD1F2041F82400214911F8242002
:10256000E0B20021FFF766FF601C84B2402CD4DB90
:102570000A20FFF7BBFE9FE76F6C65645F746173B1
:102580006B207374617274210D0A0000200000201A
:102590002020D0F2BAC5202020C6B5C2CA202020F3
:1025A000B7F9D6B5202020CAB5B2BF202020D0E987
:1025B000B2BF0D0A00000000E4050020E40700207F
:1025C0002536642C2536642C2536642C2536642C5F
:1025D0002536640D0A0000007B14AE47E17AD43F33
:1025E000E40000202DE9F04105460E462648076824
:1025F00026480068001D00F0C3FF50B9234800685A
:1026000090F82C1001208840214909688143204816
:102610000160681CD8B9D6B11E4948681B490968D1
:1026200088601A4982680968CA6018490968091DE2
:102630008268516015490968091D8160154A13496E
:1026400009684A6111460968491C11601AE07C1941
:102650000E4800684460BC4207D20C480168091D5E
:102660000D48006800F0B0FF0CE008480168091D43
:102670000A48006800F0A8FF09480068844201D2B7
:1026800007480460BDE8F081780000206400002065
:102690007C000020BC0D00206C00002068000020A1
:1026A0009400002010B5044600F0B4FF31480068E3
:1026B000401C304908603048006840B92E4804602A
:1026C0000846006801280DD100F016FA0AE02B48F0
:1026D000006838B928480068C06AE16A884201D8B1
:1026E0002548046026480068401C254908600846C3
:1026F0000068606494F82C10012088402149096822
:10270000084320490860E16A01EB81011E4A02EB9F
:1027100081014868A0608268E260211D8268516082
:102720008160E16A01EB8101174A02EB810262617B
:10273000E16A01EB8101144A52F82110491CE26A56
:1027400002EB8202104B43F8221000F0A7FF0B4867
:10275000006868B108480068C06AE16A884207D228
:102760004FF0805009490860BFF34F8FBFF36F8F60
:1027700010BD0000740000206400002080000020D4
:10278000900000207C000020EC0A002004ED00E016
:1027900010B500F03FFF10480068D0B90F4800F0B6
:1027A00003FF0F4800F000FF0C480E4908600C487A
:1027B0000D49086000221021052001F0C5FB0649E3
:1027C00008600846006820B108A10348006801F0CD
:1027D00015F800F063FF10BDAC000020D00D002004
:1027E000E40D0020A4000020A8000020546D7251C8
:1027F0000000000010B516E000F00CFF0C48C068A7
:10280000C468201D00F0BCFE0A480068401E09494B
:10281000086009480068401E0749086000F03EFF54
:10282000204600F05FF8044800680028E4D110BD9D
:10283000A80D0020740000207000002070B5044630
:102840000D46206C70B1216CE0680144E160D4E970
:102850000210884201D32168E1602846226CE168B9
:10286000FEF737F970BD2DE9F04104460F461546D5
:102870004FF00008A66B206C48B9206800282CD1C6
:10288000A06802F013F880460020A06025E07DB922
:102890003946226C6068FEF71CF9216C60680844B8
:1028A0006060D4E90101884217D32068606014E0B9
:1028B0003946226CE068FEF70CF9216CE068411A99
:1028C000E1602168E068884203D2216CA068411A67
:1028D000E160022D01D106B1761E701CA063404656
:1028E000BDE8F08110B50446206B00F00FFF2046D4
:1028F00000F00CFF10BD01464A6A22B10A6B126853
:10290000C2F1200000E00020704700000146084AA4
:10291000126812680AB9012200E000220A600A68FF
:1029200022B9034A1268D268106800E0002070479C
:10293000A400002030B54FF4A043174800F007046E
:102940002CB1C01D20F00700134C041B1B1B0246BA
:10295000124C22600024114D6C60D018083820F011
:1029600007000F4C206000240D4D2D686C600C4D4D
:102970002D682C601146441A4C60094C24680C6088
:10298000084D4C682C60084D4C682C604FF000449A
:10299000064D2C6030BD0000F80D0020B80000206E
:1029A000C0000020C8000020C4000020D400002087
:1029B00000BFFFF71FFF064800680128F9D94FF054
:1029C000805004490860BFF34F8FBFF36F8FF0E76B
:1029D000EC0A002004ED00E02DE9F04106460D462A
:1029E00017469846069C0DB9246000E02760E66310
:1029F00025640121204601F0E7FA84F85080002088
:102A0000A064BDE8F08100002DE9F05F82460F462A
:102A100090469B460A9E0C9C4FEA8801A522206B9B
:102A2000FEF79CF8A8F10100216B01EB800929F069
:102A3000070909F0070008B9012000E0002028B9C3
:102A40004FF4587223A128A0FDF724FF87B1002579
:102A500007E0795D04F134004155785D00B902E08A
:102A60006D1C102DF5D300BF00214320015502E05D
:102A7000002084F83400202E01D2012000E0002044
:102A800028B940F2973213A117A0FDF703FF202EBB
:102A900000D31F26E662E66400202065201D00F0BA
:102AA00090FD04F1180000F08CFD2461C6F12000B7
:102AB000A06164620020606584F858005A4651465F
:102AC000484600F0F1FB20600B9808B10B980460B9
:102AD000BDE8F09F2E2E5C4672656552544F535CE4
:102AE0007461736B732E63004572726F723A257353
:102AF0002C25640D0A00000010B5002407E004EB4B
:102B000084010F4A02EB810000F04EFD641C202C72
:102B1000F5D30C4800F048FD0B4800F045FD0B488C
:102B200000F042FD0A4800F03FFD0A4800F03CFD7D
:102B300004480949086004480849086010BD0000BD
:102B4000EC0A00206C0D0020800D0020940D002068
:102B5000A80D0020BC0D0020680000206C000020A3
:102B600010B50146164800E0006803688B42FBD3AD
:102B70000246436813448B4204D143684C682344A3
:102B8000436001460A464B6813440468A34211D1CE
:102B90000C4C03682468A34208D04B68046864683E
:102BA00023444B6003681B680B6005E0054B1B6802
:102BB0000B6001E003680B60884200D0016010BD2B
:102BC000B8000020C00000202DE9F04104460D4669
:102BD00016461F464FF0000865602461B5420CD8C8
:102BE000F01BA169884202D34FF0010811E0211DBA
:102BF0000948006800F0E8FC0BE0BE4204D2BD4288
:102C000002D34FF0010804E0211D0448006800F0E1
:102C1000DBFC4046BDE8F081A8000020A4000020B5
:102C200070B5054600F0F6FCA86B08B9012400E079
:102C3000002400F033FD204670BD70B5054600F05D
:102C4000E9FCA86BE96B884201D1012400E0002473
:102C500000F024FD204670BDF1B50098846C00267C
:102C60002CB940F6D73220A124A0FDF713FEA06BAB
:102C7000E16B884201D2012000E0002028B940F633
:102C8000D83219A11DA0FDF705FEA06BE16B8842AB
:102C900027D294F94550002269462046FFF7E3FD0C
:102CA0000646681C60B9606A08B9012000E000208F
:102CB000B0B904F1240001F0EFFE88B101260FE065
:102CC0007F2D01D0012000E0002028B940F6F83225
:102CD00005A10AA0FDF7DEFD681C40B284F845009E
:102CE00000BF3046F8BD00002E2E5C46726565526E
:102CF000544F535C71756575652E63004572726F34
:102D0000723A25732C25640D0A00000070B5054643
:102D10000E460E480068C068C468201D00F030FCF4
:102D200094F8280000F0040028B1324629462046D5
:102D300000F0F8F805E094F8280000F0FE0084F8B0
:102D400028002046216A884770BD0000A4000020AA
:102D500070B586B08AE0029800280CDA03AE2EB96E
:102D600040F2063247A14DA0FDF794FDD6E90020C0
:102D7000B168904700BF0298002877DB049C606927
:102D800008B9012000E0002010B9201D00F0F8FB78
:102D900001A800F0F3F8054602980A2864D2DFE89B
:102DA00000F06305072E365306082F3700BF00BF1B
:102DB00000BF94F8280040F0010084F82800039830
:102DC000A269811803462A462046FFF7FDFEA8B1F6
:102DD00094F8280000F0040038B10398A269811823
:102DE0002A46204600F09EF805E094F8280000F0FE
:102DF000FE0084F828002046216A884735E000BF9D
:102E000094F8280000F0FE0084F828002DE000BFB0
:102E100094F8280040F0010084F828000398A0618D
:102E2000A06908B1012000E0002028B940F2593221
:102E300014A11AA0FDF72EFDA06941192B462A46C0
:102E40002046FFF7C1FE10E094F8280000F00200D1
:102E500018B9204600F05AFC05E094F8280000F06C
:102E6000FE0084F8280000E000BF00BF002202A995
:102E70000E48006801F008FA00287FF46CAF06B035
:102E800070BD00002E2E5C4672656552544F535C37
:102E900074696D6572732E63000000004572726F75
:102EA000723A25732C25640D0A000000AC00002046
:102EB000F8B505460C4600F031FF684600F05EF8B4
:102EC0000646009820BB44B9B54206D801F082FE00
:102ED00031462846FFF71AFF1CE03CB10E48006857
:102EE000006808B9012000E000200446A91B224622
:102EF0000A48006800F0C0FC01F06CFE50B94FF0C9
:102F0000805007490860BFF34F8FBFF36F8F01E018
:102F100001F060FEF8BD0000A8000020AC00002019
:102F200004ED00E070B504460D46164604E0A069C5
:102F300005442046216A8847A06941192B4632463C
:102F40002046FFF741FE0028F1D170BD0948006816
:102F5000006808B9012000E0002020B14FF0FF30E8
:102F60000549086005E003480068C0680068024938
:102F700008607047680000209400002070B5044687
:102F800001F0A4FB054607480068854204D200F022
:102F90000BF80120206001E000202060014805605E
:102FA000284670BDB400002070B508E00D480068E8
:102FB000C06804684FF0FF312046FFF7A7FE0948BC
:102FC0000068006808B9012000E000200028EDD06A
:102FD0000448056804480068024908600248056022
:102FE00070BD0000A4000020A80000200B4800686D
:102FF000401C08B9012000E0002020B9CE2208A121
:1030000012A0FDF747FC00BF502080F31188BFF3EA
:103010004F8FBFF36F8F00BF00BFFEE7D8000020C7
:103020002E2E5C4672656552544F535C706F7274FD
:1030300061626C655C525644535C41524D5F434D36
:10304000335C706F72742E63000000004572726F03
:10305000723A25732C25640D0A00000008B500BFE4
:103060006846FFF753FC044620460099FFF720FF0F
:10307000FFF76EFEF4E770B5044600F0CBFA94F962
:10308000455019E0A06C30B12046FFF7E5FD88B14E
:1030900000F0E8FC0EE0606A08B9012000E00020C2
:1030A00038B904F1240001F0F7FC18B100F0DAFCA3
:1030B00000E003E0681E45B2002DE3DC00BFFF2006
:1030C00084F8450000F0EAFA00F0A4FA94F94450BC
:1030D00010E0206908B9012000E0002048B904F19F
:1030E000100001F0D9FC08B100F0BCFC681E45B22C
:1030F00000E001E0002DECDC00BFFF2084F844007C
:1031000000F0CCFA70BD00002DE9F04104464FF00C
:10311000000800F003FE4848006808B9FFF70AFC01
:10312000464800682040002873D114B304F1080019
:10313000A0421ED9083404F00700D8B104F00700FB
:10314000C0F108002044A04211D904F00700C0F1EA
:103150000800044404F0070008B9012000E0002042
:1031600040B99C2236A140A0FDF794FB02E0002468
:1031700000E00024002C4CD03F480068844248D82E
:103180003E4E3046056801E02E462D686868A04234
:1031900002D228680028F7D127480068854238D035
:1031A000306800F10808286830606868001B102843
:1031B00013D92F1907F0070008B9012000E00020FB
:1031C00020B9CF221EA128A0FDF764FB6868001B70
:1031D00078606C603846FFF7C3FC27496868096867
:1031E000081A254908600846006825490968884288
:1031F00003D22148006822490860104968680968BC
:1032000008436860002028601E480068401C1D4973
:10321000086001F0DFFC08F0070008B9012000E0B9
:10322000002028B94FF4887205A10FA0FDF732FBEA
:103230004046BDE8F0810000C0000020D40000201E
:103240002E2E5C4672656552544F535C706F7274DB
:1032500061626C655C4D656D4D616E675C68656152
:10326000705F342E630000004572726F723A2573EE
:103270002C25640D0A000000C4000020B8000020C6
:10328000C8000020CC0000200648006830B1054985
:10329000096801F15000096D491C0160014800688E
:1032A0007047000064000020001F4FF0807303602F
:1032B000001F21F001030360001F034B036014385B
:1032C0000260203870470000ED2F000800B5254B44
:1032D00021F0004287B09A4203DC0022134600929C
:1032E0002BE0214B9A4208D140B94FF00100FDF785
:1032F0006DFCFEF7B4FF07B000BD03DBFEF7ACFFCB
:1033000007B000BD02AAFEF799FC10F003014FF0D0
:1033100001000DD0012914D002291AD00DF1080C9A
:103320009CE80F00FEF74EFE07B081F0004100BDA3
:103330000DF1080C00909CE80F00FEF717FF07B096
:1033400000BD0DF1080C9CE80F00FEF73BFE07B036
:1033500000BD0DF1080C00909CE80F00FEF706FF81
:10336000E2E70000FB21E93F0000F07F2DE9F0419A
:1033700006460F4602F0CEF8041E0D4618BF012087
:10338000284320F00040C0F17F6000F1E040C00F12
:103390000ED0301C18BF0120384320F00040C0F18F
:1033A0007F6000F1E040C00F04BF0120FDF70EFC7C
:1033B00020462946BDE8F0811CB5044600F02AF9F4
:1033C00003220021012000F0BFFD234908600846C8
:1033D000006810B921A0FDF75DFA03220021012049
:1033E00000F0B2FD244908600846006810B923A027
:1033F000FDF750FA03220021012000F0A5FD274926
:1034000008600846006810B91CA0FDF743FA24487C
:10341000022100233222CDE9001022A1244801F02C
:1034200015F92448062100239622CDE9001022A197
:10343000244801F00BF9244805210023FA22CDE9A4
:10344000001022A1244801F001F92448006800F08E
:1034500073FA00F023F91CBD180000204646545FA3
:1034600053656D6170686F72652043726561742089
:10347000657272210D0A00001C0000204646544D62
:1034800061675F53656D6170686F72652043726537
:10349000617420657272210D0A0000002000002076
:1034A000040000206C6564305F7461736B00000081
:1034B000A92300080C0000204646545F7461736B1A
:1034C00000000000C90E0008100000206F6C656449
:1034D0005F7461736B000000AD24000800000020E1
:1034E00010B586B00446012144F20400FEF78EF8C0
:1034F0004FF40070ADF8140003208DF8160018206A
:103500008DF8170005A91C48FDF71AFD4FF48060DF
:10351000ADF8140004208DF8170005A91648FDF732
:103520000FFD25208DF8000003208DF801008DF897
:10353000020001208DF803006846FDF73DFF01946D
:103540000020ADF80800ADF80A00ADF80C00ADF8A9
:1035500010000C20ADF80E0001A90848FEF790FA03
:10356000012240F225510548FEF764FA0121034883
:10357000FEF72AFA06B010BD0008014000380140ED
:1035800001460A69D1E901309860D1E90103586028
:103590005068884201D18868506000200861106836
:1035A000401E10601068704700F1080141604FF044
:1035B000FF31816000F10801C160016100210160FB
:1035C000704700210161704710B502460B685C1C12
:1035D0000CB9106907E002F1080000E04068446897
:1035E00024689C42FAD944684C604C68A1608860A9
:1035F00041600A611468641C146010BD42684A602E
:1036000093688B60936859609160086103685B1CE4
:103610000360704710B500BF502080F31188BFF3DE
:103620004F8FBFF36F8F00BF0B480068401C0A49E3
:1036300008600846006801280DD108480068C0B23B
:1036400008B9012000E0002028B940F2731204A15B
:103650000EA0FDF71FF910BDD800002004ED00E01A
:103660002E2E5C4672656552544F535C706F7274B7
:1036700061626C655C525644535C41524D5F434DF0
:10368000335C706F72742E63000000004572726FBD
:10369000723A25732C25640D0A00000010B50B4802
:1036A000006828B94FF4BD7209A114A0FDF7F2F823
:1036B00006480068401E054908600846006820B9B1
:1036C000002080F3118800BF00BF10BDD80000208B
:1036D0002E2E5C4672656552544F535C706F727447
:1036E00061626C655C525644535C41524D5F434D80
:1036F000335C706F72742E63000000004572726F4D
:10370000723A25732C25640D0A00000070B5064638
:103710003546002E3AD0083D2C461D4960680968A0
:10372000084008B1012000E0002028B94FF492724F
:1037300018A122A0FDF7AEF8206808B9012000E02A
:10374000002028B940F2251212A11CA0FDF7A2F812
:103750000F49606809680840C0B12068B0B90C49D9
:10376000606809688843606000F0D8FA17496068AB
:1037700009680844154908602046FFF7F1F9144824
:103780000068401C1249086001F024FA70BD000076
:10379000D40000202E2E5C4672656552544F535C57
:1037A000706F727461626C655C4D656D4D616E67C2
:1037B0005C686561705F342E630000004572726F53
:1037C000723A25732C25640D0A000000C400002005
:1037D000D000002000204FF0E021086188610648F9
:1037E00000684FF47A71B0FBF1F0401E4FF0E02119
:1037F0004861072008617047240000202DE9F0414E
:1038000005460F4600262DB940F6CA2210A115A084
:10381000FDF740F8BFB1002412E0164800EBC400E9
:103820004068A84203D1134800EBC4060AE036B949
:10383000104850F8340010B90E4800EBC406641C60
:10384000082CEAD300BF0EB137607560BDE8F08187
:103850002E2E5C4672656552544F535C71756575CA
:10386000652E63004572726F723A25732C25640DC4
:103870000A000000AC0A00202DE9F04105460E4682
:1038800017462C46FFF7C6FE94F94400401C10B9B9
:10389000002084F8440094F94500401C10B9002031
:1038A00084F84500FFF7FAFEA06B28B93A46314686
:1038B00004F1240000F006F92046FFF7DCFBBDE828
:1038C000F081000070B504460025ACB10F480068D7
:1038D00008B9012000E0002028B940F249520CA1AB
:1038E00010A0FCF7D7FF00F019FA00212046FEF7E0
:1038F00079FE01F06FF905463DB94FF080500D4952
:103900000860BFF34F8FBFF36F8F70BDA000002022
:103910002E2E5C4672656552544F535C7461736B16
:10392000732E63004572726F723A25732C25640DF5
:103930000A00000004ED00E070B50546FFF76AFEDE
:1039400015B92F48006800E028460446201DFFF7FF
:1039500017FE78B9E06A00EB80002A4951F8200090
:1039600040B994F82C100120884027490968814308
:1039700025480160A06A18B104F11800FFF700FEA5
:1039800022480068401C214908601D4800688442A4
:1039900009D1211D1E48FFF731FE1E480068401C5A
:1039A0001C49086006E01C480068401E1A4908606F
:1039B000FFF7CCFAFFF772FE11480068844202D08C
:1039C0002046FEF78FFF15480068C0B10C4800681C
:1039D000844214D11248006808B9012000E0002098
:1039E00028B940F2DC420FA113A0FCF753FF4FF0BF
:1039F000805015490860BFF34F8FBFF36F8F70BDC4
:103A000064000020EC0A00207C00002090000020D0
:103A1000A80D00207000002074000020800000200D
:103A2000A00000202E2E5C4672656552544F535CF8
:103A30007461736B732E63004572726F723A2573F3
:103A40002C25640D0A00000004ED00E0034909681C
:103A50000160034909684160704700008C00002044
:103A6000780000200120014908607047880000208C
:103A700070B504460D462CB940F61C4207A10CA0B7
:103A8000FCF708FF0E48016818312046FFF79CFD3F
:103A900001212846FEF7A6FD70BD00002E2E5C46D3
:103AA00072656552544F535C7461736B732E63007F
:103AB0004572726F723A25732C25640D0A0000005E
:103AC0006400002070B504460E4615462CB940F639
:103AD000524211A115A0FCF7DDFE60681749096884
:103AE000C8611649826809680A6214490968183170
:103AF0008268516011490968183181600F4909686D
:103B00008C622168491C21600DB14FF0FF362946B7
:103B10003046FEF767FD70BD2E2E5C46726565521D
:103B2000544F535C7461736B732E63004572726FF4
:103B3000723A25732C25640D0A00000064000020F1
:103B40002DE9F04706460F4634464FF00109002E96
:103B500070D0206D28B941F29F0237A13BA0FCF73D
:103B600099FEE06CB84201D23D4600E0E56CE06AA7
:103B7000A8425FD0206D01285CD13848006884429B
:103B800001D0012000E0002028B941F2BA022AA1A8
:103B90002EA0FCF77FFED4F82C80E562A06900F02F
:103BA000004010B9C5F12000A06108EB88012C4A43
:103BB00002EB81016069884201D1012000E0002010
:103BC000C0B3201DFFF7DCFC40B994F82C10012095
:103BD00088402449096881432248016094F82C10E8
:103BE000012088401F49096808431E490860E16AAE
:103BF00001EB81011A4A02EB81014868A0608268EA
:103C0000E260211D826851608160E16A01EB8101FF
:103C1000134A02EB81026261E16A01EB8101104A01
:103C200052F82110491CE26A02EB82020C4B43F865
:103C3000221000BFBDE8F0872E2E5C4672656552EB
:103C4000544F535C7461736B732E63004572726FD3
:103C5000723A25732C25640D0A00000064000020D0
:103C6000EC0A00207C0000201CB51B4800210B46FC
:103C70008222CDE9001019A11A4800F0E7FC0446A1
:103C8000012C02D101F06EF80446012C15D100BFC1
:103C9000502080F31188BFF34F8FBFF36F8F00BFA9
:103CA0004FF0FF30104908600120104908600020E3
:103CB0000F49086000F08EF80BE0601C08B101208D
:103CC00000E0002028B94FF404620AA10EA0FCF71E
:103CD000E1FD114800681CBD9800002049444C4596
:103CE00000000000B129000894000020800000209E
:103CF000780000202E2E5C4672656552544F535C4E
:103D00007461736B732E63004572726F723A257320
:103D10002C25640D0A0000009C0000200248006869
:103D2000401C014908607047A000002010B51B48E6
:103D3000006818B101201A4908602DE000201849D8
:103D4000086018480068B0FA80F0C0F11F0404EB66
:103D50008400154951F8200008B1012000E000203E
:103D600028B940F6024211A115A0FCF793FD04EB1F
:103D700084010D4A02EB810041684968416000F10D
:103D8000080142688A4202D141684968416041683D
:103D9000C9680F4A116000BF10BD0000A0000020DC
:103DA000880000207C000020EC0A00202E2E5C46BB
:103DB00072656552544F535C7461736B732E63006C
:103DC0004572726F723A25732C25640D0A0000004B
:103DD000640000201CB53B4C204600780190FF2079
:103DE000214608700846007800909DF8000000F019
:103DF000F0009DF80010884201D1012000E0002071
:103E000028B940F21F1230A13AA0FCF743FD9DF8FB
:103E1000000000F050003B49087007203A49086054
:103E200009E039480068401E374908609DF80000E5
:103E30004006000E00909DF8000000F080008028F1
:103E4000EFD031480068C0F10700042801D10120FB
:103E500000E0002028B940F233121BA125A0FCF796
:103E600019FD29480068C0F10700042801D101208C
:103E700000E0002028B94FF49E7213A11DA0FCF7AA
:103E800009FD2148006800021F49086008460088B3
:103E900000F4E06008600B49019808701B48006856
:103EA00040F47000194908600846006840F070400E
:103EB0000860FFF78FFC002015490860FCF7A0F9A7
:103EC00000201CBD00E400E02E2E5C4672656552A9
:103ED000544F535C706F727461626C655C525644EF
:103EE000535C41524D5F434D335C706F72742E636F
:103EF000000000004572726F723A25732C25640D24
:103F00000A000000DC000020E000002020ED00E0BE
:103F1000D800002010B500BF502080F31188BFF3F7
:103F20004F8FBFF36F8F00BF00F0D6FB18B14FF07B
:103F300080500449086000BF002080F3118800BF52
:103F400010BD000004ED00E02DE9F84305460E46E3
:103F500017460024E5B1601EB0FBF5F0B04217D360
:103F600005FB06F010F1550F12D805FB06F909F113
:103F70005400FFF7C9F804468CB1A04608F1540874
:103F80003B464246314628460094FEF725FD06E0B2
:103F90002CB94FF4E37203A107A0FCF77BFC204689
:103FA000BDE8F8832E2E5C4672656552544F535C13
:103FB00071756575652E63004572726F723A25736F
:103FC0002C25640D0A0000002DE9F04105460E463F
:103FD00001272C462CB94FF488722CA130A0FCF795
:103FE00059FC002C42D0E06B00283FD04FF0FF314D
:103FF000E06BB1FBF0F0216C884237D3FFF70AFB8E
:10400000D4E90F12206801FB0200A0600020A06329
:1040100020686060E06B401E226C216800FB02118A
:10402000E160FF2084F8440084F845009EB92069CF
:1040300008B9012000E00020A8B904F1100000F048
:104040002BFD80B14FF0805019490860BFF34F8FAE
:10405000BFF36F8F07E004F11000FFF7A5FA04F13A
:104060002400FFF7A1FAFFF719FB00E000270FB1CA
:10407000012000E0002028B940F2451203A108A069
:10408000FCF708FC3846BDE8F08100002E2E5C46A7
:1040900072656552544F535C71756575652E63008A
:1040A0004572726F723A25732C25640D0A00000068
:1040B00004ED00E02DE9FF4782B0064688461D4624
:1040C0004FF0000934462CB940F22E3264A169A0A9
:1040D000FCF7E0FBB8F1000F01D1206C08B901201A
:1040E00000E0002028B940F22F325DA161A0FCF76A
:1040F000D1FB022D02D1E06B012801D1012000E0AB
:10410000002028B94FF44C7255A15AA0FCF7C2FB0D
:1041100000F0CCFA08B9049808B9012000E00020AA
:1041200028B940F233324EA152A0FCF7B3FB00BFD6
:10413000FFF770FAA06BE16B884201D3022D3ED1EC
:10414000D4F838A02A4641462046FEF78CFB0746A5
:10415000A06C88B1022D02D1BAF1000F29D12046FE
:10416000FEF77AFD28B34FF0805046490860BFF350
:104170004F8FBFF36F8F1CE0606A08B9012000E029
:10418000002068B904F1240000F086FC88B14FF0EB
:1041900080503C490860BFF34F8FBFF36F8F08E03A
:1041A0003FB14FF0805037490860BFF34F8FBFF3E6
:1041B0006F8FFFF773FA012006B0BDE8F08704980F
:1041C00018B9FFF76BFA0020F6E7B9F1000F04D138
:1041D0006846FFF73BFC4FF00109FFF75FFAFFF776
:1041E0009DFDFFF717FA94F94400401C10B9002018
:1041F00084F8440094F94500401C10B9002084F86C
:104200004500FFF74BFA04A9684600F0CFF9F8B96A
:104210002046FEF712FDA8B104F110000499FFF743
:1042200027FC2046FEF727FF00F0D4FC00287FF48F
:104230007FAF4FF0805013490860BFF34F8FBFF33B
:104240006F8F75E72046FEF716FF00F0C3FC6FE79F
:104250002046FEF710FF00F0BDFC0020ACE7000098
:104260002E2E5C4672656552544F535C71756575B0
:10427000652E63004572726F723A25732C25640DAA
:104280000A00000004ED00E02DE9F74183B0054687
:104290000E464FF000082C462CB940F251524CA16A
:1042A00050A0FCF7F7FA0EB9206C08B9012000E025
:1042B000002028B940F2555245A14AA0FCF7EAFA7D
:1042C00000F0F4F908B9059808B9012000E00020D1
:1042D00028B940F25A523EA142A0FCF7DBFA00BFD7
:1042E000FFF798F9A76BF7B131462046FEF7A6FA1B
:1042F000781EA063206908B9012000E0002060B9A1
:1043000004F1100000F0C8FB38B14FF0805039497B
:104310000860BFF34F8FBFF36F8FFFF7BFF9012026
:1043200006B0BDE8F081059818B9FFF7B7F900208D
:10433000F6E7B8F1000F04D101A8FFF787FB4FF0B3
:104340000108FFF7ABF9FFF7E9FCFFF763F994F910
:104350004400401C10B9002084F8440094F9450042
:10436000401C10B9002084F84500FFF797F905A913
:1043700001A800F01BF9F0B92046FEF751FCA0B1EE
:1043800004F124000599FFF773FB2046FEF773FE46
:1043900000F020FC0028A3D14FF0805015490860A0
:1043A000BFF34F8FBFF36F8F9AE72046FEF763FE90
:1043B00000F010FC94E72046FEF75DFE00F00AFCDA
:1043C0002046FEF72DFC00288AD00020A8E7000038
:1043D0002E2E5C4672656552544F535C717565753F
:1043E000652E63004572726F723A25732C25640D39
:1043F0000A00000004ED00E02DE9F34182B005461B
:104400004FF000082C4600262CB940F2E3525DA183
:1044100061A0FCF73FFA206C08B9012000E0002001
:1044200028B940F2E75257A15BA0FCF733FA00F03D
:104430003DF908B9039808B9012000E0002028B927
:1044400040F2EC524FA154A0FCF724FA00BFFFF752
:10445000E1F8A76BFFB1781EA063206810B9FEF7E2
:1044600013FFA060206908B9012000E0002060B9B6
:1044700004F1100000F010FB38B14FF080504A49B1
:104480000860BFF34F8FBFF36F8FFFF707F901206D
:1044900004B0BDE8F081039870B90EB9012000E0C6
:1044A000002028B940F2326236A13BA0FCF7F2F9B5
:1044B000FFF7F4F80020EBE7B8F1000F04D16846ED
:1044C000FFF7C4FA4FF00108FFF7E8F8FFF726FC02
:1044D000FFF7A0F894F94400401C10B9002084F8BC
:1044E000440094F94500401C10B9002084F84500B0
:1044F000FFF7D4F803A9684600F058F840BB2046FF
:10450000FEF78EFBF0B1206838B9FFF783F8A0689A
:1045100000F04CFA0646FFF7C1F804F124000399B5
:10452000FFF7A6FA2046FEF7A6FD00F053FB002891
:104530008DD14FF080501C490860BFF34F8FBFF3FF
:104540006F8F84E72046FEF796FD00F043FB7EE781
:104550002046FEF790FD00F03DFB2046FEF760FB95
:104560000028EED05EB1FFF755F82046FEF7C3F9FC
:1045700007463946A068FFF7E3FAFFF78FF80020F7
:1045800086E700002E2E5C4672656552544F535CE0
:1045900071756575652E63004572726F723A257389
:1045A0002C25640D0A00000004ED00E070B50546FE
:1045B0000C462DB940F6FD4219A11EA0FCF76AF980
:1045C0002CB940F6FE4216A11AA0FCF763F9FFF7DA
:1045D00021F81C48036868681A1A2068401C08B94A
:1045E000002619E0184928680968884206D06868DA
:1045F000984203D80126002020600DE020689042F8
:1046000007D92068801A20602846FFF71FFA002685
:1046100002E0002020600126FFF740F8304670BD20
:104620002E2E5C4672656552544F535C7461736BF9
:10463000732E63004572726F723A25732C25640DD8
:104640000A000000780000208C0000202DE9FF4FB8
:1046500085B0804689461746DDE912ABB800FEF703
:1046600053FD064656B15C20FEF74EFD04460CB1E4
:10467000266304E03046FFF749F800E000247CB1EF
:104680000020CDE900ABCDE902403A46494640461C
:10469000089BFEF7B9F92046FEF704F8012501E072
:1046A0004FF0FF35284609B0BDE8F08F054909688D
:1046B00009B9012005E00449096809B9022000E0B0
:1046C0000020704780000020A000002001490868F9
:1046D00070470000780000202DE9F0414FF00008FD
:1046E0005E48006800287DD15D480068451C5C4834
:1046F0000560EDB95B480068006808B9012000E07A
:10470000002028B940F6C72257A15CA0FCF7C2F8E8
:10471000544807685D480068524908605B48076074
:104720005B480068401C5A490860FEF70FFC00BF58
:1047300058480068854277D300BF4A48006800683F
:1047400008B9012000E0002020B14FF0FF305149AE
:10475000086068E043480068C068C4686668B5429D
:1047600002D24C4806605EE06069D4E902128A60B9
:10477000D4E902214A60211D42688A4201D1E168E0
:104780004160002262610168491E0160A06A98B11F
:10479000A06AD4E907128A60D4E907214A6004F1CB
:1047A000180142688A4201D1216A41600022A26256
:1047B0000168491E016000BF94F82C100120884058
:1047C00035490968084334490860E16A01EB810111
:1047D000324A02EB81014868A0608268E260211DD4
:1047E000826800E032E051608160E16A01EB8101A2
:1047F0002A4A02EB81026261E16A01EB8101274AE8
:1048000052F82110491CE26A02EB8202234B43F862
:1048100022102349E06A0968C96A88428DD34FF0A3
:1048200001088AE700E000BF1D480068C06A00EB8D
:1048300080001A4951F82000012801D94FF00108E1
:104840001848006808B14FF0010804E016480068F5
:10485000401C154908604046BDE8F081A0000020DA
:1048600078000020680000202E2E5C46726565529C
:10487000544F535C7461736B732E63004572726F97
:10488000723A25732C25640D0A0000006C0000208C
:104890008C000020940000207C000020EC0A002006
:1048A00064000020880000208400002070B50546C8
:1048B0002C460026002D5ED030480068844201D18D
:1048C000012000E0002028B941F24F022CA131A0C4
:1048D000FBF7E0FF206D28B941F2500228A12DA07E
:1048E000FBF7D8FF206D401E2065E16CE06A88422E
:1048F00041D0206D00283ED1201DFEF741FE40B979
:1049000094F82C10012088402649096881432548E5
:104910000160E06CE062E06AC0F12000A06194F800
:104920002C10012088401F49096808431D49086070
:10493000E16A01EB81011C4A02EB81014868A06039
:104940008268E260211D826851608160E16A01EB4A
:104950008101154A02EB81026261E16A01EB81018A
:10496000114A52F82110491CE26A02EB82020E4BF6
:1049700043F822100126304670BD0000640000207C
:104980002E2E5C4672656552544F535C7461736B96
:10499000732E63004572726F723A25732C25640D75
:1049A0000A0000007C000020EC0A002070B50546DB
:1049B0002C460026002D67D03449E06A0968C96A90
:1049C00088425AD2A06900F0004028B92F480068F8
:1049D000C06AC0F12000A061E16A01EB81012C4AAC
:1049E00002EB81016069884201D1012000E00020D2
:1049F000E0B3201DFEF7C4FD40B994F82C1001204F
:104A00008840244909688143224801601F480068A2
:104A1000C06AE06294F82C10012088401D490968A2
:104A200008431C490860E16A01EB8101184A02EB66
:104A300081014868A0608268E260211D826851603F
:104A40008160E16A01EB8101114A02EB810262613E
:104A5000E16A01EB81010E4A52F82110491CE26A19
:104A600002EB82020A4B43F8221004E0FFE70748FA
:104A70000068C06AE062012606E00449E06C09684B
:104A8000C96A884200D20126304670BD6400002009
:104A9000EC0A00207C00002070B50646F068C4686F
:104AA0002CB940F682423CA140A0FBF7F3FEA06A7D
:104AB000D4E907128A60D4E907214A6004F1180199
:104AC00042688A4201D1216A41600022A2620168E3
:104AD000491E01603948006800283DD16069D4E969
:104AE00002128A60D4E902214A60211D42688A428A
:104AF00001D1E1684160002262610168491E0160E4
:104B000094F82C10012088402D49096808432C494D
:104B10000860E16A01EB81012A4A02EB81014868E1
:104B2000A0608268E260211D826851608160E16A54
:104B300001EB8101234A02EB81026261E16A01EB30
:104B40008101204A52F82110491CE26A02EB8202DC
:104B50001C4B43F8221010E01B494868E061826852
:104B6000226204F11801826851608160164AA262D3
:104B700011460968491C116000BF1449E06A0968C0
:104B8000C96A884204D9012501201149086000E062
:104B90000025284670BD00002E2E5C4672656552C9
:104BA000544F535C7461736B732E63004572726F64
:104BB000723A25732C25640D0A000000A000002025
:104BC0007C000020EC0A0020940D002064000020EE
:104BD0008800002070B5002400265048006828B9DD
:104BE00040F6B3024EA153A0FBF754FEFEF712FDB0
:104BF0004A480068401E4949086008460068002885
:104C00007ED15048006800287AD05BE04E48C068EA
:104C1000C468A06AD4E907128A60D4E907214A600F
:104C200004F1180142688A4201D1216A41600022E0
:104C3000A2620168491E01606069D4E902128A60BB
:104C4000D4E902214A60211D42688A4201D1E1680B
:104C50004160002262610168491E016094F82C10D5
:104C60000120884039490968084338490860E16AE9
:104C700001EB8101364A02EB81014868A06082683D
:104C8000E260211D826851608160E16A01EB81016F
:104C90002F4A02EB81026261E16A01EB81012C4A39
:104CA00052F82110491CE26A02EB8202284B43F8B9
:104CB00022102849E06A0968C96A884202D30120A3
:104CC000254908602048006808B9012000E000205C
:104CD00000289BD00CB1FEF739F92048056865B172
:104CE00000BFFFF7F9FC10B101201B4908606D1EE1
:104CF000002DF6D10020194908601748006800E02F
:104D000008E038B10126300715490860BFF34F8F1E
:104D1000BFF36F8FFEF7C2FC304670BDA0000020CD
:104D20002E2E5C4672656552544F535C7461736BF2
:104D3000732E63004572726F723A25732C25640DD1
:104D40000A00000074000020940D00207C00002068
:104D5000EC0A00206400002088000020840000206D
:104D600004ED00E01CB50024FDF712FD0B480068BF
:104D700058B10B481F2100234FF48272CDE9001077
:104D800008A10A48FFF762FC04462CB940F2191248
:104D900007A10DA0FBF77EFD20461CBDAC00002046
:104DA000B0000020546D7220537663005D3000081F
:104DB0002E2E5C4672656552544F535C74696D6566
:104DC00072732E63000000004572726F723A257391
:104DD0002C25640D0A00000021F00042A2F160526F
:104DE000B2F5801F01F0004328BFD2F17F6C0BD9D0
:104DF0005FEA001C43EAC20242EB507018BF7047E2
:104E000028BF20F001007047B2F5801FBCBF1846D4
:104E100070474FEA410C1CF5001F02D2084600F013
:104E200098BF70B500F016FB00000089FFF7F6BFD1
:104E30004FF00040A0F580007047000010B591EAE7
:104E4000030F48BF83F0004300F15284841A71EBD2
:104E5000030C05D2121943EB0C03001B61EB0C0190
:104E6000DFF824E14FEA1154A4EB135C1EEA430F70
:104E700018BF9EEA445F73D023EA0E03DCF1200ED4
:104E800021EA045143F4801332D322FA0CFE10EBD2
:104E90000E0023FA0CFE41EB0E01CCF1200E03FABA
:104EA0000EFE10EB0E0051F10001B1F5801FCCF1A8
:104EB000200E32D201EB045112FA0EF2BDE810407E
:104EC00058BF7047401C38BF5FEA420218BF7047A6
:104ED000002814BF20F0010041F100014FEA410316
:104EE00013F5001F38BF7047A1F1C04100F000BBAF
:104EF000012A43EB0302ACF1200CDCF11F0E32BFA0
:104F00004FF0000E23FA0CF310EB030041EB0451B9
:104F1000B4EB115FD0D0A1EB045101F58011490829
:104F20005FEA300001EB04510ED350F1000038BFAE
:104F300012FA0EFE08D1BDE81040C9E7401C38BF88
:104F40005FEA4202CAD1C3E7BDE810404FEA41031D
:104F500013F5001F38BF7047A1F1C04100F0C8BA77
:104F60009EEA445F08D011EA5E0FBDE8104004BF1E
:104F700001F0004100207047BDE8104070B500F01E
:104F800069FA00BF64FBBE3E0000E0FF02494FF03B
:104F9000000000F058BF00BF0000F87F2DE9C041BD
:104FA00030B4DFF8A0C23CEA111418BF3CEA131475
:104FB00000F0EC8081EA03051CEA111444EAD57480
:104FC00018BF1CEA131500F0C780A4EB05044FF0CE
:104FD000004545EAC12145EAC32341EA505143EA6D
:104FE000525304F17F74994204F500344FEAC02013
:104FF0004FEAC22208BF904200F09C804FEA13653E
:105000000FF24016765D4FEA134506FB05F7C7F130
:10501000807706FB07F74FEAD737A7FB036876428E
:10502000C8F58038A7FB06CE38BFA8F1010807FBFA
:1050300008E64FF0000EA6FB028CE6FB03CEDCF187
:10504000000CCEF1004E38BFAEF1010EA6FB0C589D
:105050004FF000074FF00005E6FB0E87A1FB08C6E6
:10506000A0FB07CE16EB0E0645F10005E1FB076538
:1050700015F1E04E7EBFA4F580345FEA46066D412F
:1050800016F1800745F100054FEA17274FEA06663B
:1050900047EA0567A6F1DE46B6F1805F4FEA1525BF
:1050A0001FD9384624F0010C05EBC471BCF1FE6F2A
:1050B00001EB0C1102D8F0BCBDE8008124425CBFBA
:1050C00001F5801E9EEAC47F02D4F0BCBDE80081D9
:1050D000244238D4F0BCA1F1C041BDE8004100F049
:1050E00007BA4FEAD22242EA43524FEAD323A7FB40
:1050F00002864FEAD02040EA415007FB03661EEAD1
:105100000E0F4FEAD12105FB026658BFA6EB0056F1
:10511000B6EB00564FEA520E4EEAC37E18EB0E0E67
:1051200056EB530EBDD518EB02085E417F1C55F1BE
:105130000005B6E74FF480154FF000074FF000066A
:105140004FF00008ADE7F0BC4FF0000001F1C041A6
:1051500001F00041BDE8008111EA0C1F0CEA1315B3
:1051600000D00CE013EA0C1F00F025804FF0000087
:10517000F0BC81EA030101F00041BDE80081F0BC10
:10518000BDE8004181EA030100F0B2B9F0BCBDE81E
:10519000004170B500F05EF9097EFC3E00F007B8F2
:1051A00081EA03014FF0000001F00041704781EAFD
:1051B000030100F09DB9F0BCBDE800414FF00000D4
:1051C00021497047FFFDFBF9F7F5F4F2F0EEEDEB46
:1051D000E9E8E6E4E3E1E0DEDDDBDAD8D7D5D4D3F5
:1051E000D1D0CFCDCCCBCAC8C7C6C5C4C2C1C0BF41
:1051F000BEBDBCBBBAB9B8B7B6B5B4B3B2B1B0AF47
:10520000AEADACABAAA9A8A8A7A6A5A4A3A3A2A12A
:10521000A09F9F9E9D9C9C9B9A99999897979695E5
:1052200095949393929191908F8F8E8E8D8C8C8B81
:105230008B8A898988888787868585848483838209
:10524000828181800000FF070000F87F4FEA410360
:105250004FEA5353A3F58063D3F11E03C8BFD3F1C4
:10526000210C0CDD4FF0004242EAC12242EA5052CA
:1052700032FA03FC8CEAE17CACEBE1707047102B56
:10528000C4BF0020704703F5787CBCF1FF3F04D019
:105290006FF0004282EA2100704770B500F0DAF842
:1052A0004992248000207047F2E710F0004248BF86
:1052B0004042B0FA80F310FA03F10AD0C3F11D03A3
:1052C00003F580634FEA415002EB035202EBD12118
:1052D00070474FF000007047B0FA80F310FA03F106
:1052E0000AD0C3F11D0303F580634FEA41504FEA32
:1052F000035202EBD12170474FF0000070470000CD
:10530000DFF848C170B51CEA111E1EBF1CEA131558
:105310009EEA0C0F95EA0C0F00F06F8081EA0304FF
:1053200023EA4C134EEAD47E21EA4C1141F4801159
:1053300043F48013AE44A1FB024CA0FB0365AEF125
:105340007F7E361955EB0C05A1FB034C4CF1000395
:10535000A0FB021C16EB0C06654153F10003094249
:1053600018BF46F0010613F4007F0BD14FEA03315A
:105370004FEA0530340341EA155140EA16506FF008
:1053800003020AE04FEAC3214FEAC520F40241EAD2
:10539000555140EA56506FF0020202EB2E4201EBEB
:1053A000025585EACE710AD05FEA440C18BF24F09A
:1053B000004450F1000041F1000120EAD47040F2B5
:1053C000FE7C624500D270BDA84214BF4FF08044FD
:1053D0004FF04044002E08BF0024BEF1806FA8BFEC
:1053E000A1F1C041BDE8704080F282804FF0000022
:1053F00001F1C04101F0004170479EEA0C0F0CEA38
:10540000131518BF95EA0C0F06D04FF0000081EA83
:10541000030E0EF0004170BD00F01CF88900013E43
:1054200000F007B800F009B84FEA430C5FEA5C5C93
:1054300008D081EA030100F05BB84FEA410C5FEA53
:105440005C5CF6D14FF00000014970470000FF0797
:105450000000F87F0EF1020E2EF0030E5EF8046BD2
:10546000364205D4012A43EB030515F5001F12D877
:10547000012841EB010C1CF5001F0CD80ED14FEA9E
:10548000D17C15F5001F0CEB4C0C0CF1020C08BF85
:105490004CEBD37C04E04FF0080C01E04FEAD37CE6
:1054A0000CEB4C0526FA05F606F00706B6F1040CDF
:1054B00006D20EEB860CBDE870404CF0010C604744
:1054C000DFE80CF0090B02024FF000414FF0000042
:1054D000A1F5002170BD19461046012851EB0104C9
:1054E00018BFD4F5001484BF002001F0004170BD46
:1054F0000808A0F500114FEA3101704791EA030F47
:1055000010B581F000413FF5A1AC83F0004300F0FD
:10551000EFB800002DE9F04101F5801CBCF5001F3B
:10552000C0F2C3804FEA115C21EA0C510CF1FD0C72
:1055300041F480115FEA5C0C0CF5C07C01D34000A3
:1055400049413DA4890241EA905187028E0E0A0C1E
:10555000A45D04FB04F602FB06F6C6F14046A4FB7C
:105560000662F60D46EA422606FB06F4A4FB01237A
:105570005242C3F1404338BF5B1EA6FB02420024E7
:10558000E6FB0324D20B42EA4446A6FB0623A1FB1A
:1055900002E2A3FB07E4A4184FF0000252F100025C
:1055A000E3FB01426442C2F1404E38BFAEF1010E4E
:1055B000A6FB04234FF00002E6FB0E32A2FB0346DB
:1055C0004FF00004B61954F10004E2FB0264A1FBA1
:1055D00006E6A4FB07E816EB08064FF0000858F1B2
:1055E0000008E4FB01687642C8F1405838BFA8F1D2
:1055F0000108A2FB06E4A3FB08E52D194FF0000407
:1056000054F10004E2FB0854A1FB05E6A7FB04E803
:1056100018EB06084FF0000656F10006E1FB048681
:1056200018F1200556F10006A809A8F11B08B109D8
:1056300008F03F08B8F10A0F40EA86601CD901EB78
:105640000C51BDE8F08100BFFCF5EEE8E2DDD8D3F7
:10565000CFCBC7C3C0BDB9B6B4B1AEACA9A7A5A3E3
:10566000A19F9D9B9A9896959392908F8D8C8B89F4
:105670008887868584838281A0FB006800FB01F215
:1056800008EB4208B8EB872807D5341858EB01041B
:10569000D5D5401C51F10001D1E7341A78EB010453
:1056A000CDD4401E71F10001C9E75FEA4C0C5FEAFE
:1056B0009C5C0DD105D34FF0000001F00041BDE826
:1056C000F081BDE8F04170B5FFF7C4FE6DDBFFBEB1
:1056D000BDE8F0414FF00000004970470000F87F3E
:1056E00010B591EA030F48BF83F000433FF5AEAB1E
:1056F000841A71EB030C07D212198CF0004C43EBA7
:105700000C03001B61EB0C01DFF8A4E14FEA11541C
:10571000A4EB135C1EEA430F18BF9EEA445F00F03F
:10572000B08023EA6E03524221EA0451C3EB6E03B8
:1057300038BF5B1EDCF1200E25D322FA0CFE10EBE5
:105740000E0043FA0CFE41EB0E01CCF1200E03FAE1
:105750000EFE10EB0E0051F10001CCF1200E29D409
:1057600012FA0EF201EB0451BDE8104058BF704729
:10577000401C1CBFB2F1004F704700280CBF491CF1
:1057800020F00100704712EB020E43EB030218BF3A
:105790004FF0010E4EEA4202ACF1200CDCF11E0E7D
:1057A00054D943FA0CFE10EB0E0051F1FF31CCF14D
:1057B0001E0ED5D50EF1010E12FA0EFE404141EB40
:1057C000010101EB445C5FEA5C5C10D910EBDE7018
:1057D00001EB045138BFBEF1004FBDE8104018BFC7
:1057E000704700280CBF491C20F00100704730D2E0
:1057F0004FEAD42C11F5001124F400641BD0B1FA47
:1058000081F20B3AA41AA41ED2F12003914030FA7F
:1058100003F31943904001EBCC71002C01EB0451D0
:10582000BDE81040A8BF704701F1C0414FF0000033
:1058300001F000417047B0FA80F310FA03F100D193
:1058400010BDE41A173C4805C90AE4E701EB04510E
:1058500010BD491001EB0451BDE810404FEA300083
:1058600002E04FF0000170474A0008BF0042F8D044
:10587000B2F5001F28BF704701F000414FF0000053
:1058800070479EEA445F07D011EA5E0FBDE8104002
:1058900004BF002100207047BDE8104070B5FFF73D
:1058A000D9FD00BF40DFF63E83F00041104670474F
:1058B0000000E0FF43004FEAD30C4FEA3C0C4340AA
:1058C0001FBF40070CF1605113F0FE4F70471CF0F2
:1058D000006F03D100200CF0004170470CF0004332
:1058E00043EA507010B540EACC0000F0ECF900BF7C
:1058F000000000924FEA0001FFF7FABD4FF00041AF
:105900004FF00000A1F500217047000090EA010F60
:1059100048BF81F0004100F12882421A3CBF801A42
:1059200089184FEAD0524FF07F4C1CEA410FA2EB8E
:10593000D15318BF9CEA026F00F03B804FF0004C3F
:105940004CEA00204CEA012121FA03FC10EB0C0C7C
:105950001ED202F1FF325FEA1C2040EBC25038BF7A
:1059600070471CF07F0F4FEA400C18BFBCF17F4F0F
:1059700038BF7047C3F12003994008BF20F00100F1
:10598000BCF17F4F38BF7047A0F1C04000F0E1B9D3
:105990004FEA3C00000A40EBC25028BF1CF0FF0F4A
:1059A0004FEA400CE6D018BFBCF17F4F38BF7047BC
:1059B000EAE79CEA026F05D010EA5C0F08BF00F02E
:1059C0000040704710B500F07EF900BF64FBBE3E9A
:1059D0004FF47F0C1CEAD0121EBF1CEAD11392EACE
:1059E0000C0F93EA0C0F00F0858090EA010F48BF7E
:1059F00042F4807240F4000C41F400002CF07F412E
:105A000020F07F4000B58142A2EB03020FF2081C98
:105A1000ACEB504EC0F100009EF800E04FEA4E0E95
:105A200000FB0EFC38BF49004FEA2C1C02F5FA02BD
:105A30000CFB0EF34FEACE1E4FEA112C4FEAC121A8
:105A40000EEB635E42EB22420EFB0CFC4FEA1C5352
:105A500000FB03114FEA112C4FEA01310EFB0CFC45
:105A60004FEADC4C00FB0C11C14228BF09184CEB7B
:105A700003335DF804EB10EB410143EBC250B2F588
:105A80007C0F38BF704729D512F0F00F1CBF00F112
:105A9000C04000F000407047008182838485868783
:105AA00088898B8C8D8E8F919293959697999A9CDD
:105AB0009D9FA0A2A3A5A7A8AAACAEB0B2B3B5B74C
:105AC000B9BCBEC0C2C5C7C9CCCED1D4D7D9DCDF22
:105AD000E2E6E9ECF0F3F7FAFE0000004FEA400CD2
